:020000040800F2
:100000000000022075100008C3100008C510000889
:10001000C7100008C9100008CB100008000000003D
:10002000000000000000000000000000CD100008EB
:10003000CF10000800000000D110000809100008CF
:10004000D7100008D9100008DB100008DD100008E8
:10005000DF100008E1100008E3100008E5100008B8
:10006000E7100008E9100008EB100008ED10000888
:10007000EF100008F1100008F3100008F510000858
:10008000F7100008F9100008FB100008FD10000828
:10009000FF100008011100080311000805110008F5
:1000A00007110008091100080B1100080D110008C4
:1000B0000F11000811110008131100081511000894
:1000C00017110008191100081B1100081D11000864
:1000D0001F11000821110008231100082511000834
:1000E00027110008291100082B1100082D11000804
:1000F0002F110008311100083311000835110008D4
:1001000037110008391100083B1100083D110008A3
:100110003F11000841110008431100084511000873
:1001200047110008491100084B1100084D11000843
:100130004F11000851110008531100085511000813
:1001400057110008591100085B1100085D110008E3
:100150005F110008611100086311000865110008B3
:1001600067110008691100086B1100086D11000883
:100170006F11000871110008731100087511000853
:10018000771100087911000810B5054C237833B9B0
:10019000044B13B10448AFF300800123237010BD5A
:1001A0008800002000000000AC14000808B5064BD1
:1001B0001BB106480649AFF300800648036813B137
:1001C000054B03B1984708BD00000000AC140008BF
:1001D0008C0000208800002000000000154B002B40
:1001E00008BF134B9D46A3F5803A00218B460F466E
:1001F0001348144A121A01F03FF90F4B002B00D09C
:1002000098470E4B002B00D0984700200021044651
:100210000D4600200C490022002301F0CFF801F028
:1002200005F92046294600F037FD01F0D1F800BF5E
:100230000000080000000220000000000000000094
:1002400088000020A6000020FD13000880B487B0BD
:1002500000AF786039604FF000037B614FF000031E
:100260003B614FF00003FB604FF000037B6186E0D1
:100270007B694FF0010202FA03F33B613B681A68A5
:100280003B691340FB60FA683B699A4273D17B6813
:100290001A687B694FEA43034FF0030101FA03F345
:1002A0006FEA03031A407B681A607B681A683B6830
:1002B0001B7919467B694FEA430301FA03F31A439A
:1002C0007B681A603B681B79012B03D03B681B7964
:1002D000022B34D17B689A687B694FEA43034FF065
:1002E000030101FA03F36FEA03031A407B689A6083
:1002F0007B689A683B685B7919467B694FEA4303E0
:1003000001FA03F31A437B689A607B685A687B6939
:100310009BB24FF0010101FA03F36FEA03031A40A5
:100320007B685A607B685A683B689B7919467B6991
:100330009BB201FA03F39BB21A437B685A607B6855
:10034000DA687B699BB24FEA43034FF0030101FA7D
:1003500003F36FEA03031A407B68DA607B68DA68AC
:100360003B68DB7919467B694FEA430301FA03F3E3
:100370001A437B68DA607B6903F101037B617B6967
:100380000F2B7FF675AF07F11C07BD4680BC704789
:1003900080B485B000AF786013460A467A807B70DF
:1003A0004FF00003FB604FF00003BB607A787B885E
:1003B00003F007034FEA830302FA03F3FB607B8831
:1003C0004FEAD3039BB21A467B884FEAD3039BB212
:1003D00019467B6801F1080153F821107B8803F06E
:1003E00007034FEA83034FF00F0000FA03F36FEAAD
:1003F000030319407B6802F1080243F822107B884E
:100400004FEAD3039BB21A467B6802F1080253F805
:100410002220FB681343BB607B884FEAD3039BB267
:100420001A467B6802F10802B96843F8221007F106
:100430001407BD4680BC704780B483B000AF7860BD
:100440000B46FB70FB78002B0CD04FF46053C4F2CA
:1004500002034FF46052C4F20202116B7A680A433D
:100460001A630DE04FF46053C4F202034FF460527C
:10047000C4F20202116B7A686FEA02020A401A6340
:1004800007F10C07BD4680BC704700BF80B483B045
:1004900000AF78600B46FB70FB78002B0CD04FF45C
:1004A0006053C4F202034FF46052C4F20202116CB2
:1004B0007A680A431A640DE04FF46053C4F20203F1
:1004C0004FF46052C4F20202116C7A686FEA0202C1
:1004D0000A401A6407F10C07BD4680BC704700BF94
:1004E00080B485B000AF786039604FF00003FB81C5
:1004F0007B681B88FB817A684FF00003C4F201031C
:100500009A421FD07A684FF48063C4F201039A4282
:1005100018D07B68B3F1804F14D07A684FF48063B1
:10052000C4F200039A420DD07A684FF40063C4F21B
:1005300000039A4206D07A684FF44063C4F2000385
:100540009A4208D1FB8923F07003FB813B685A88EB
:10055000FB891343FB817A684FF48053C4F2000394
:100560009A420FD07A684FF4A053C4F200039A4223
:1005700008D0FB8923F44073FB813B681A89FB890F
:100580001343FB817B68FA891A803B685A687B6851
:10059000DA623B681A887B681A857A684FF0000334
:1005A000C4F201039A4206D07A684FF48063C4F221
:1005B00001039A4204D13B689B7A1A467B681A86EB
:1005C0007B684FF001029A8207F11407BD4680BC98
:1005D000704700BF80B483B000AF78600B46FB70FB
:1005E000FB78002B08D07B681B889BB243F080030C
:1005F0009AB27B681A8007E07B681B889BB223F065
:1006000080039AB27B681A8007F10C07BD4680BC54
:10061000704700BF80B483B000AF78600B46FB70BA
:10062000FB78002B08D07B681B889BB243F001034A
:100630009AB27B681A8007E07B681B889BB223F024
:1006400001039AB27B681A8007F10C07BD4680BC93
:10065000704700BF80B485B000AF786039604FF05C
:1006600000037B814FF00003FB814FF00003BB814F
:100670007B681B8C9BB223F001039AB27B681A84BF
:100680007B681B8CFB817B689B88BB817B681B8B99
:100690007B817B8923F070037B817B8923F00303BB
:1006A0007B813B681A887B8913437B81FB8923F01C
:1006B0000203FB813B689A89FB891343FB813B68FA
:1006C0005A88FB891343FB817A684FF00003C4F218
:1006D00001039A4206D07A684FF48063C4F20103A2
:1006E0009A4223D1FB8923F00803FB813B68DA8916
:1006F000FB891343FB81FB8923F00403FB813B68E7
:100700009A88FB891343FB81BB8923F48073BB81E7
:10071000BB8923F40073BB813B681A8ABB891343EE
:10072000BB813B685A8ABB891343BB817B68BA890A
:100730009A807B687A891A833B689A687B685A63D7
:100740007B68FA891A8407F11407BD4680BC70479C
:1007500080B485B000AF786039604FF000037B81D2
:100760004FF00003FB814FF00003BB817B681B8CC3
:100770009BB223F010039AB27B681A847B681B8CAF
:10078000FB817B689B88BB817B681B8B7B817B8922
:1007900023F4E0437B817B8923F440737B813B68B6
:1007A0001B884FEA03239AB27B8913437B81FB8921
:1007B00023F02003FB813B689B894FEA03139AB225
:1007C000FB891343FB813B685B884FEA03139AB2B2
:1007D000FB891343FB817A684FF00003C4F20103E5
:1007E0009A4206D07A684FF48063C4F201039A42B9
:1007F0002FD1FB8923F08003FB813B68DB894FEA23
:1008000003139AB2FB891343FB81FB8923F0400356
:10081000FB813B689B884FEA03139AB2FB89134321
:10082000FB81BB8923F48063BB81BB8923F4006314
:10083000BB813B681B8A4FEA83039AB2BB8913438F
:10084000BB813B685B8A4FEA83039AB2BB8913433F
:10085000BB817B68BA899A807B687A891A833B68F6
:100860009A687B689A637B68FA891A8407F114078F
:10087000BD4680BC704700BF80B485B000AF7860D3
:1008800039604FF000037B814FF00003FB814FF094
:100890000003BB817B681B8C9BB223F480739AB2EC
:1008A0007B681A847B681B8CFB817B689B88BB817F
:1008B0007B689B8B7B817B8923F070037B817B89A9
:1008C00023F003037B813B681A887B8913437B8178
:1008D000FB8923F40073FB813B689B894FEA032368
:1008E0009AB2FB891343FB813B685B884FEA032381
:1008F0009AB2FB891343FB817A684FF00003C4F27C
:1009000001039A4206D07A684FF48063C4F201036F
:100910009A422FD1FB8923F40063FB813B68DB897A
:100920004FEA03239AB2FB891343FB81FB8923F42B
:100930008063FB813B689B884FEA03239AB2FB8963
:100940001343FB81BB8923F48053BB81BB8923F410
:100950000053BB813B681B8A4FEA03139AB2BB89E1
:100960001343BB813B685B8A4FEA03139AB2BB898E
:100970001343BB817B68BA899A807B687A899A83A2
:100980003B689A687B68DA637B68FA891A8407F1A6
:100990001407BD4680BC704780B485B000AF786056
:1009A00039604FF00003BB814FF000037B814FF0B3
:1009B0000003FB817B681B8C9BB223F480539AB2AB
:1009C0007B681A847B681B8C7B817B689B88FB819E
:1009D0007B689B8BBB81BB8923F4E043BB81BB89D4
:1009E00023F44073BB813B681B884FEA03239AB210
:1009F000BB891343BB817B8923F400537B813B6814
:100A00009B894FEA03339AB27B8913437B813B680E
:100A10005B884FEA03339AB27B8913437B817A6800
:100A20004FF00003C4F201039A4206D07A684FF4F3
:100A30008063C4F201039A420BD1FB8923F4804303
:100A4000FB813B681B8A4FEA83139AB2FB891343ED
:100A5000FB817B68FA899A807B68BA899A833B68B4
:100A60009A687B681A647B687A891A8407F114078C
:100A7000BD4680BC704700BF80B483B000AF7860D3
:100A800039607B683A685A6307F10C07BD4680BC41
:100A9000704700BF80B483B000AF786039607B6876
:100AA0003A689A6307F10C07BD4680BC704700BFE7
:100AB00080B483B000AF786039607B683A68DA63ED
:100AC00007F10C07BD4680BC704700BF80B483B0FF
:100AD00000AF786039607B683A681A6407F10C07E8
:100AE000BD4680BC704700BF80B485B000AF786061
:100AF0000B467B804FF00003FB817B681B8BFB81E7
:100B0000FB8923F00803FB81FA897B881343FB816F
:100B10007B68FA891A8307F11407BD4680BC7047C9
:100B200080B485B000AF78600B467B804FF0000347
:100B3000FB817B681B8BFB81FB8923F40063FB81BA
:100B40007B884FEA03239AB2FB891343FB817B68BE
:100B5000FA891A8307F11407BD4680BC704700BFAD
:100B600080B485B000AF78600B467B804FF0000307
:100B7000FB817B689B8BFB81FB8923F00803FB8156
:100B8000FA897B881343FB817B68FA899A8307F192
:100B90001407BD4680BC704780B485B000AF786054
:100BA0000B467B804FF00003FB817B689B8BFB81B6
:100BB000FB8923F40063FB817B884FEA03239AB20D
:100BC000FB891343FB817B68FA899A8307F1140739
:100BD000BD4680BC704700BF80B483B000AF034601
:100BE0003960FB7197F90730002B10DA4FF46D4331
:100BF000CEF20003FA7902F00F02A2F104013A6882
:100C0000D2B24FEA0212D2B25B181A760DE04FF45C
:100C10006143CEF2000397F907103A68D2B24FEA67
:100C20000212D2B25B1883F8002307F10C07BD460D
:100C300080BC704780B582B000AF78607A686FF092
:100C40007F439A4202D94FF001031FE04EF2100396
:100C5000CEF200037A6822F07F4202F1FF325A603E
:100C60004FF0FF304FF00F01FFF7B6FF4EF21003C9
:100C7000CEF200034FF000029A604EF21003CEF263
:100C800000034FF007021A604FF00003184607F107
:100C90000807BD4680BD00BF80B586B000AF00F03C
:100CA00071FA40F21803C2F200031A6844F6D353F3
:100CB000C1F26203A3FB02134FEA93131846FFF736
:100CC000B9FF00F0AFF840F20403C2F200031A6863
:100CD00040F20003C2F200031B881046194600F0E0
:100CE000F3F84FF000037B614FF000033B614FF0DE
:100CF0000003FB604FF00003BB604FF00103FB718A
:100D00004FF00103BB714FF001037B714FF0010302
:100D10003B71FB79002B0CD07B6903F101037B61F4
:100D20007A6943F697239A420DD94FF00003FB717D
:100D300009E07B6903F1FF337B617B69002B02D102
:100D40004FF00103FB71BB79002B0CD03B6903F121
:100D50000A033B613A6943F697239A420DD94FF053
:100D60000003BB7109E03B69A3F10A033B613B69E6
:100D7000002B02D14FF00103BB717B79002B0CD00B
:100D8000FB6803F11403FB60FA6843F697239A4269
:100D90000DD94FF000037B7109E0FB68A3F1140348
:100DA000FB60FB68002B02D14FF001037B713B79A4
:100DB000002B0CD0BB6803F12803BB60BA6843F674
:100DC00097239A420DD94FF000033B7109E0BB68AD
:100DD000A3F12803BB60BB68002B02D14FF00103D5
:100DE0003B714FF48060C4F200007969FFF744FE64
:100DF0004FF48060C4F200003969FFF74BFE4FF4F6
:100E00008060C4F20000F968FFF752FE4FF4806082
:100E1000C4F20000B968FFF759FE4FF0010000F07E
:100E20000FF976E780B582B000AF4FF002004FF0C7
:100E30000101FFF72BFB4FF006004FF00101FFF718
:100E4000FBFA4FF470733B604FF002033B714FF0BD
:100E500003037B714FF00003BB714FF00103FB7183
:100E60003B464FF40060C4F202001946FFF7EEF96A
:100E70004FF40060C4F202004FF006014FF002028E
:100E8000FFF786FA4FF40060C4F202004FF007014A
:100E90004FF00202FFF77CFA4FF40060C4F2020048
:100EA0004FF008014FF00202FFF772FA4FF40060B2
:100EB000C4F202004FF009014FF00202FFF768FA96
:100EC00007F10807BD4680BD80B58AB000AF7860E5
:100ED0000B467B807B6803F1FF333B627B8803F129
:100EE000FF339BB2BB834FF00003BB844FF0000382
:100EF000FB8307F11C034FF48060C4F20000194625
:100F0000FFF7EEFA4FF060033B814FF00003BB8226
:100F10004FF001037B8140F20803C2F200031B681B
:100F20003B6107F108034FF48060C4F200001946EA
:100F3000FFF790FB4FF48060C4F200004FF008010F
:100F4000FFF7D2FD4FF001037B8140F20C03C2F2A8
:100F500000031B683B6107F108034FF48060C4F293
:100F600000001946FFF7F4FB4FF48060C4F2000064
:100F70004FF00801FFF7D4FD4FF001037B8140F2F1
:100F80001003C2F200031B683B6107F108034FF432
:100F90008060C4F200001946FFF76EFC4FF48060D9
:100FA000C4F200004FF00801FFF7DAFD4FF0010333
:100FB0007B8140F21403C2F200031B683B6107F11E
:100FC00008034FF48060C4F200001946FFF7E4FC08
:100FD0004FF48060C4F200004FF00801FFF7DCFD21
:100FE0004FF48060C4F200004FF00101FFF7F2FA05
:100FF0004FF48060C4F200004FF00101FFF70AFBDC
:1010000007F12807BD4680BD80B400AF40F2A403BD
:10101000C2F200031B889BB2002B0DD040F2A40348
:10102000C2F200031B889BB203F1FF339AB240F275
:10103000A403C2F200031A80BD4680BC704700BF03
:1010400080B483B000AF78607B689AB240F2A403AA
:10105000C2F200031A8000BF40F2A403C2F20003F0
:101060001B889BB2002BF7D107F10C07BD4680BC53
:10107000704700BF0749084A084B9A42BEBF51F863
:10108000040B42F8040BFFF7F8BF054880470548FA
:1010900000470000B814000800000020880000206D
:1010A00085110008DD0100083449354A002300F0AD
:1010B00002B841F8043B9142FFF4FBAFFFF7ECFDAF
:1010C000FEE7FEE7FEE7FEE7FEE7FEE7FEE7FEE7F8
:1010D000FEE7FEE7FEE7FEE7FEE7FEE7FEE7FEE7E8
:1010E000FEE7FEE7FEE7FEE7FEE7FEE7FEE7FEE7D8
:1010F000FEE7FEE7FEE7FEE7FEE7FEE7FEE7FEE7C8
:10110000FEE7FEE7FEE7FEE7FEE7FEE7FEE7FEE7B7
:10111000FEE7FEE7FEE7FEE7FEE7FEE7FEE7FEE7A7
:10112000FEE7FEE7FEE7FEE7FEE7FEE7FEE7FEE797
:10113000FEE7FEE7FEE7FEE7FEE7FEE7FEE7FEE787
:10114000FEE7FEE7FEE7FEE7FEE7FEE7FEE7FEE777
:10115000FEE7FEE7FEE7FEE7FEE7FEE7FEE7FEE767
:10116000FEE7FEE7FEE7FEE7FEE7FEE7FEE7FEE757
:10117000FEE7FEE7FEE7FEE7FEE70000880000204E
:10118000A600002080B500AF4FF46D43CEF20003FF
:101190004FF46D42CEF20002D2F8882042F4700281
:1011A000C3F888204FF46053C4F202034FF4605236
:1011B000C4F20202126842F001021A604FF4605356
:1011C000C4F202034FF000029A604FF46053C4F27D
:1011D00002034FF46052C4F20202126822F08472D9
:1011E00022F480321A604FF46053C4F2020343F2D7
:1011F0001002C2F200425A604FF46053C4F202037C
:101200004FF46052C4F20202126822F480221A6083
:101210004FF46053C4F202034FF00002DA6000F0B2
:1012200009F84FF46D43CEF200034FF000629A606C
:1012300080BD00BF80B483B000AF4FF000037B607F
:101240004FF000033B604FF46053C4F202034FF4CD
:101250006052C4F20202126842F480321A604FF403
:101260006053C4F202031B6803F400333B607B68E5
:1012700003F101037B603B68002B03D17B68B3F56E
:10128000C06FECD14FF46053C4F202031B6803F447
:101290000033002B03D04FF001033B6002E04FF01E
:1012A00000033B603B68012B40F082804FF46053A9
:1012B000C4F202034FF46052C4F20202126C42F014
:1012C00080521A644FF4E043C4F200034FF4E0424A
:1012D000C4F20002126842F480421A604FF4605374
:1012E000C4F202034FF46052C4F2020292689A60A0
:1012F0004FF46053C4F202034FF46052C4F202028E
:10130000926842F400429A604FF46053C4F20203C0
:101310004FF46052C4F20202926842F4A0529A6002
:101320004FF46053C4F2020345F20842C0F2407227
:101330005A604FF46053C4F202034FF46052C4F297
:101340000202126842F080721A6000BF4FF46053CC
:10135000C4F202031B6803F00073002BF6D04FF4B5
:101360007053C4F2020340F205721A604FF46053E6
:10137000C4F202034FF46052C4F20202926822F0F7
:1013800003029A604FF46053C4F202034FF46052B8
:10139000C4F20202926842F002029A6000BF4FF467
:1013A0006053C4F202039B6803F00C03082BF6D1D0
:1013B00007F10C07BD4680BC704700BF10B5034C59
:1013C00014B1AFF3008010BD204610BD0000000036
:1013D00008B5084B04461BB10021AFF3008001E0C3
:1013E00000F00CF8044B1868836A03B19847204654
:1013F00000F04AF800000000A814000870B5094B7E
:10140000094CE41AA41003EB8406002502E072598B
:101410009047013C043D002CF9D1BDE8704000F03C
:101420003BB800BF840000208800002070B50E4B40
:101430000E4DED1AAD1000241E4603E056F8242090
:1014400090470134AC42F9D100F020F8084D094B27
:10145000ED1AAD1000241E4603E056F824209047F4
:101460000134AC42F9D170BD800000208000002022
:1014700084000020800000208218034601E003F869
:10148000011B9342FBD17047FEE700BFF8B500BFD8
:10149000F8BC08BC9E467047F8B500BFF8BC08BC55
:1014A0009E467047430000001C0000200000000022
:0814B0002CEDFF7F010000009C
:1014B80054000000204E00001400000050C300003B
:1014C80010270000983A0000007A030A0000000084
:1014D8000000000000000000000000000000000004
:1014E800000000000000000000000000A414000834
:1014F80000000000000000000000000000000000E4
:1015080000000000000000000000000000000000D3
:1015180000000000000000000000000000000000C3
:1015280000000000000000000000000000000000B3
:08153800AD0100088901000863
:04000005080001DC12
:00000001FF
